{
  "contractName": "Transactions",
  "abi": [
    {
      "anonymous": false,
      "inputs": [
        {
          "indexed": false,
          "internalType": "address",
          "name": "from",
          "type": "address"
        },
        {
          "indexed": false,
          "internalType": "address",
          "name": "receiver",
          "type": "address"
        },
        {
          "indexed": false,
          "internalType": "uint256",
          "name": "amount",
          "type": "uint256"
        },
        {
          "indexed": false,
          "internalType": "string",
          "name": "message",
          "type": "string"
        },
        {
          "indexed": false,
          "internalType": "uint256",
          "name": "timestamp",
          "type": "uint256"
        },
        {
          "indexed": false,
          "internalType": "string",
          "name": "keyword",
          "type": "string"
        }
      ],
      "name": "Transfer",
      "type": "event"
    },
    {
      "inputs": [
        {
          "internalType": "address payable",
          "name": "receiver",
          "type": "address"
        },
        {
          "internalType": "uint256",
          "name": "amount",
          "type": "uint256"
        },
        {
          "internalType": "string",
          "name": "message",
          "type": "string"
        },
        {
          "internalType": "string",
          "name": "keyword",
          "type": "string"
        }
      ],
      "name": "addToBlockchain",
      "outputs": [],
      "stateMutability": "nonpayable",
      "type": "function"
    },
    {
      "inputs": [],
      "name": "getAllTransactions",
      "outputs": [
        {
          "components": [
            {
              "internalType": "address",
              "name": "sender",
              "type": "address"
            },
            {
              "internalType": "address",
              "name": "receiver",
              "type": "address"
            },
            {
              "internalType": "uint256",
              "name": "amount",
              "type": "uint256"
            },
            {
              "internalType": "string",
              "name": "message",
              "type": "string"
            },
            {
              "internalType": "uint256",
              "name": "timestamp",
              "type": "uint256"
            },
            {
              "internalType": "string",
              "name": "keyword",
              "type": "string"
            }
          ],
          "internalType": "struct Transactions.TransferStruct[]",
          "name": "",
          "type": "tuple[]"
        }
      ],
      "stateMutability": "view",
      "type": "function",
      "constant": true
    },
    {
      "inputs": [],
      "name": "getTransactionCount",
      "outputs": [
        {
          "internalType": "uint256",
          "name": "",
          "type": "uint256"
        }
      ],
      "stateMutability": "view",
      "type": "function",
      "constant": true
    }
  ],
  "bytecode": "0x608060405234801561001057600080fd5b50610a37806100206000396000f3fe608060405234801561001057600080fd5b50600436106100415760003560e01c806327506f53146100465780632e7700f014610064578063cc2d7ead14610082575b600080fd5b61004e61009e565b60405161005b9190610556565b60405180910390f35b61006c6100a3565b6040516100799190610587565b60405180910390f35b61009c60048036038101906100979190610755565b6100ac565b005b606090565b60008054905090565b60016000808282546100be9190610823565b9250508190555060016040518060c001604052803373ffffffffffffffffffffffffffffffffffffffff1681526020018673ffffffffffffffffffffffffffffffffffffffff16815260200185815260200184815260200142815260200183815250908060018154018082558091505060019003906000526020600020906006020160009091909190915060008201518160000160006101000a81548173ffffffffffffffffffffffffffffffffffffffff021916908373ffffffffffffffffffffffffffffffffffffffff16021790555060208201518160010160006101000a81548173ffffffffffffffffffffffffffffffffffffffff021916908373ffffffffffffffffffffffffffffffffffffffff1602179055506040820151816002015560608201518160030190805190602001906101fd92919061026e565b506080820151816004015560a082015181600501908051906020019061022492919061026e565b5050507f416cfa4330a4565f45c2fd2dd4826a83a37443aba2ce6f79477c7355afac35fa33858585428660405161026096959493929190610931565b60405180910390a150505050565b82805461027a906109cf565b90600052602060002090601f01602090048101928261029c57600085556102e3565b82601f106102b557805160ff19168380011785556102e3565b828001600101855582156102e3579182015b828111156102e25782518255916020019190600101906102c7565b5b5090506102f091906102f4565b5090565b5b8082111561030d5760008160009055506001016102f5565b5090565b600081519050919050565b600082825260208201905092915050565b6000819050602082019050919050565b600073ffffffffffffffffffffffffffffffffffffffff82169050919050565b60006103688261033d565b9050919050565b6103788161035d565b82525050565b6000819050919050565b6103918161037e565b82525050565b600081519050919050565b600082825260208201905092915050565b60005b838110156103d15780820151818401526020810190506103b6565b838111156103e0576000848401525b50505050565b6000601f19601f8301169050919050565b600061040282610397565b61040c81856103a2565b935061041c8185602086016103b3565b610425816103e6565b840191505092915050565b600060c083016000830151610448600086018261036f565b50602083015161045b602086018261036f565b50604083015161046e6040860182610388565b506060830151848203606086015261048682826103f7565b915050608083015161049b6080860182610388565b5060a083015184820360a08601526104b382826103f7565b9150508091505092915050565b60006104cc8383610430565b905092915050565b6000602082019050919050565b60006104ec82610311565b6104f6818561031c565b9350836020820285016105088561032d565b8060005b85811015610544578484038952815161052585826104c0565b9450610530836104d4565b925060208a0199505060018101905061050c565b50829750879550505050505092915050565b6000602082019050818103600083015261057081846104e1565b905092915050565b6105818161037e565b82525050565b600060208201905061059c6000830184610578565b92915050565b6000604051905090565b600080fd5b600080fd5b60006105c18261033d565b9050919050565b6105d1816105b6565b81146105dc57600080fd5b50565b6000813590506105ee816105c8565b92915050565b6105fd8161037e565b811461060857600080fd5b50565b60008135905061061a816105f4565b92915050565b600080fd5b600080fd5b7f4e487b7100000000000000000000000000000000000000000000000000000000600052604160045260246000fd5b610662826103e6565b810181811067ffffffffffffffff821117156106815761068061062a565b5b80604052505050565b60006106946105a2565b90506106a08282610659565b919050565b600067ffffffffffffffff8211156106c0576106bf61062a565b5b6106c9826103e6565b9050602081019050919050565b82818337600083830152505050565b60006106f86106f3846106a5565b61068a565b90508281526020810184848401111561071457610713610625565b5b61071f8482856106d6565b509392505050565b600082601f83011261073c5761073b610620565b5b813561074c8482602086016106e5565b91505092915050565b6000806000806080858703121561076f5761076e6105ac565b5b600061077d878288016105df565b945050602061078e8782880161060b565b935050604085013567ffffffffffffffff8111156107af576107ae6105b1565b5b6107bb87828801610727565b925050606085013567ffffffffffffffff8111156107dc576107db6105b1565b5b6107e887828801610727565b91505092959194509250565b7f4e487b7100000000000000000000000000000000000000000000000000000000600052601160045260246000fd5b600061082e8261037e565b91506108398361037e565b9250827fffffffffffffffffffffffffffffffffffffffffffffffffffffffffffffffff0382111561086e5761086d6107f4565b5b828201905092915050565b6108828161035d565b82525050565b6000819050919050565b60006108ad6108a86108a38461033d565b610888565b61033d565b9050919050565b60006108bf82610892565b9050919050565b60006108d1826108b4565b9050919050565b6108e1816108c6565b82525050565b600082825260208201905092915050565b600061090382610397565b61090d81856108e7565b935061091d8185602086016103b3565b610926816103e6565b840191505092915050565b600060c0820190506109466000830189610879565b61095360208301886108d8565b6109606040830187610578565b818103606083015261097281866108f8565b90506109816080830185610578565b81810360a083015261099381846108f8565b9050979650505050505050565b7f4e487b7100000000000000000000000000000000000000000000000000000000600052602260045260246000fd5b600060028204905060018216806109e757607f821691505b602082108114156109fb576109fa6109a0565b5b5091905056fea264697066735822122088cfadef8065830231ea811eae46d93b906ff300e7b69adc6ed0099f8535704c64736f6c634300080b0033",
  "immutableReferences": {},
  "source": "// SPDX-License-Identifier: UNLICENSED\r\npragma solidity ^0.8.11;\r\n\r\ncontract Transactions {\r\n    uint256 transactionCounter;\r\n\r\n    event Transfer(address from, address receiver, uint amount, string message, uint256 timestamp, string keyword);\r\n    \r\n    struct TransferStruct {\r\n        address sender;\r\n        address receiver;\r\n        uint amount;\r\n        string message;\r\n        uint256 timestamp;\r\n        string keyword;\r\n    }\r\n\r\n    TransferStruct[] transactions;\r\n\r\n    function addToBlockchain(address payable receiver, uint amount, string memory message, string memory keyword) public {\r\n        transactionCounter += 1;\r\n        transactions.push(TransferStruct(msg.sender, receiver, amount, message, block.timestamp, keyword));\r\n\r\n        emit Transfer(msg.sender, receiver, amount, message, block.timestamp, keyword);\r\n    }\r\n\r\n    function getAllTransactions() public view returns (TransferStruct[] memory) {\r\n        // return transactions\r\n    }\r\n\r\n    function getTransactionCount() public view returns (uint256) {\r\n        return transactionCounter;\r\n    }\r\n}",
  "sourcePath": "C:\\Users\\larri\\Documents\\ynov\\bidate\\contracts\\Transactions.sol",
  "compiler": {
    "name": "solc",
    "version": "0.8.11+commit.d7f03943.Emscripten.clang"
  },
  "schemaVersion": "3.4.7",
  "updatedAt": "2022-05-09T09:51:36.319Z",
  "networkType": "ethereum",
  "devdoc": {
    "kind": "dev",
    "methods": {},
    "version": 1
  },
  "userdoc": {
    "kind": "user",
    "methods": {},
    "version": 1
  }
}